:1070000039C000006EC000006CC000006AC0000003
:1070100068C0000066C0000064C0000062C00000DC
:1070200060C000005EC000005CC0000088C50000B9
:1070300058C0000056C0000054C0000052C00000FC
:1070400050C000004EC00000DAC100004AC000007D
:1070500048C0000046C0000044C0000042C000001C
:1070600040C000003EC000003CC000003AC000002C
:1070700038C0000011241FBECFEFD4E0DEBFCDBF6B
:1070800004B603FE19C0809191019091920182345F
:107090009C4D91F484B7877F84BF88E10FB6F89444
:1070A00080936000109260000FBE109292011092C7
:1070B0009101E0E0F0E0099511E0A0E0B1E0E4E347
:1070C000FEE702C005900D92A437B107D9F711E091
:1070D000A4E7B1E001C01D92A139B107E1F749D1A0
:1070E000A7C68ECF8823A1F09091F200911111C014
:1070F0009091E8009B7F9093E80003C09EB3992392
:1071000039F09091E80092FFF9CF81508111ECCFD6
:1071100008959091F1008150F9CF30918101209133
:10712000800190917F0180917E0190937601809300
:107130007701C901909374018093750108951F939D
:10714000CF93DF93CDB7DEB727970FB6F894DEBFA6
:107150000FBECDBF80918601882361F180917C01B3
:10716000843009F453C0853009F058C080E28D8323
:107170008CED8E838BEF8F8388E589838EE18A8304
:1071800085E98B838AE88C8390917E0180917D01D3
:10719000882309F4ABC0813009F04BC0FE01903662
:1071A00008F4DDC0EC55F109E90FF11D80818093F1
:1071B0007B013FC080917C01843009F45BC008F002
:1071C00081C0813009F43FC0833099F580917D0101
:1071D000982F9D7F09F491C0813059F5E0E0F0E0EF
:1071E00005C03196E11520E7F20719F184918F3F30
:1071F000C1F310927801F0937701E09376018AE071
:107200008093000185E08093840113C080917D010B
:10721000811104C080917E018F3FB9F18AE0809393
:10722000000183E0809384018091EB008062809371
:10723000EB0027960FB6F894DEBF0FBECDBFDF91EF
:10724000CF911F91089510917D01123090F765DF65
:1072500011110CC0809176019091770123E0FC011F
:1072600020935700E89507B600FCFDCF85E080939A
:107270000001DFCF80917D01833009F443C081118B
:10728000D8CF80917E018F3FA1F6E0E0F0E093E05F
:1072900085E090935700E89507B600FCFDCF8093FA
:1072A0005700E89507B600FCFDCFE058FF4FE11509
:1072B00020E7F20771F781E180935700E89510927B
:1072C0008601B7CF853009F451CF863009F0B1CFB0
:1072D00080917D01833009F0ACCF80917E018111D6
:1072E000A8CF80917F0180937801A3CFFE01E90FA1
:1072F000F11D858180937B019CCF0FDF89E0809316
:10730000000197CF81E08093850180918201909167
:107310008301892B71F080917E01813009F089CF42
:1073200090918101809180019093790180937A01FD
:1073300080CF80917E01811119C082E49CED9093F1
:107340009201809391012CE088E190E00FB6F894CF
:10735000A895809360000FBE209360006ACFBF970E
:10736000E90FF11D808180937B0163CF10920101B1
:1073700060CF84B7877F84BF88E10FB6F89480938D
:107380006000109260000FBE90E080E80FB6F894A5
:1073900080936100909361000FBEC1E0C5BF82E0A1
:1073A00085BFBED38AB180638AB98BB180638BB944
:1073B000C0936F0083E0809381008BB180638F7EE8
:1073C0008BB9789401C016D5809101018111FBCF52
:1073D000809185018111F7CF5AD38AB18F7C8AB908
:1073E0008BB18F7C8BB910926F001092810081E07D
:1073F00085BF15BEE0917901F0917A0109951F9240
:107400000F920FB60F9211248F9380E389B98F9159
:107410000F900FBE0F901F901895CF92DF92EF92B2
:10742000FF920F931F93CF93DF93809189018F7702
:10743000813249F0DF91CF911F910F91FF90EF9032
:10744000DF90CF90089580E389B980918F0190916A
:107450009001909383018093820180918A0183300F
:10746000C1F1C0F0853009F4ACC008F4A2C0863088
:1074700009F78091E800877F8093E80082E080939D
:107480000001DF91CF911F910F91FF90EF90DF905E
:10749000CF90DCC2813009F440C0823059F680912F
:1074A000E800877F8093E80003C08EB3882311F241
:1074B0008091E80080FFF9CF80910001893009F4C4
:1074C0009CC08A3009F469C180917B018093F100EE
:1074D0008AC08091E800877F8093E80004C08EB363
:1074E000882309F4A7CF8091E80080FFF8CF80912E
:1074F00084018093F1001092F1001092F10010923B
:10750000F100809100018093F1001092F1008091D0
:10751000E8008E7F8093E800B4CF8091E800877FF9
:107520008093E80080918501811163C08091820180
:10753000909183010097C1F480910001853051F44E
:107540008091820190918301892B09F096C082E09D
:10755000809300018091E8008B7F8093E80091CFB9
:107560002EB3222309F466CF2091E80022FFF8CF42
:107570002091F10020937C010197909383018093E7
:107580008201EDE7F1E08091F200882381F08091A3
:10759000F1008193809182019091830101979093F2
:1075A00083018093820181E0E238F80761F7C7DD4B
:1075B000C3CF8091E800877F8093E8001092840118
:1075C00060CF8091E800877F8093E80004C08EB38D
:1075D000882309F42FCF8091E80080FFF8CF8091B5
:1075E00000018093F1008091E8008E7F8093E80095
:1075F00048CFA5DD1092850199CF809176019091B9
:107600007701E0917401F09175019F012F5F3F4F69
:10761000281B390B40917D014111CDC0369527952E
:10762000AC0180917801682F70E02115310509F4D3
:10763000F7C0C9010FC0FA01259134912093F100E0
:107640003093F1004E5F5F4F6F4F7F4F0197009770
:1076500009F4E2C02091F200203269F72091E8009D
:107660002E7F2093E80004C02EB3222309F4E2CE3B
:107670002091E80020FFF8CFDECF8AE133DD0091D2
:10768000760110917701802F8F712CDDC0917401EC
:10769000D09175012196C01BD10B80917D01811184
:1076A00066C0D695C795C80120917801A22FB0E099
:1076B0008C019D01F12CEE24E39465E0D62E73E05D
:1076C000C72E209709F4B1C04091F20041110EC0BD
:1076D0004091E8004B7F4093E80004C04EB3442340
:1076E00009F4A8CE4091E80042FFF8CF21977091AD
:1076F000F1006091F100472F562FFC010A01E09242
:107700005700E8951124F394AC01BD014E5F5F4F23
:107710006F4F7F4FDB01CA01F0E4FF1611F0209795
:1077200081F6F801D0925700E89507B600FCFDCF2E
:10773000209709F4C6CFFA01C0925700E89507B622
:1077400000FCFDCF8A019B01F12CBBCF6091F100C1
:1077500080917601909177015DD38091760190912F
:107760007701019690937701809376012197209776
:1077700009F467C08091F2008111E8CF8091E800A0
:107780008B7F8093E80004C08EB3882309F452CE27
:107790008091E80082FFF8CFD9CF80917D018130C0
:1077A00009F092CE90917601809177019093F1004B
:1077B0008093F10018CF423021F082E080930001E5
:1077C00012CF21153105C9F3E9010FC01BD38093F6
:1077D000F100809176019091770101969093770165
:1077E000809376012197209741F32091F200203277
:1077F00069F78091E8008E7F8093E80004C08EB323
:10780000882309F417CE8091E80080FFF8CF80919B
:10781000760190917701DACFE0917401F0917501D2
:10782000F0937701E0937601C8CF80917401909135
:107830007501909377018093760181E180935700E1
:10784000E89580E14FDC86CE292F30E022303105EB
:1078500001F12330310599F02130310541F080E00C
:1078600090E020E030E0FA0131832083089582E146
:1078700090E021E631E0FA013183208308958111FF
:1078800010C084E090E022E431E0FA0131832083EB
:1078900008958BE190E026E431E0FA013183208302
:1078A0000895813039F08230D1F682E190E022E013
:1078B00031E0D9CF8AE290E026E131E0D4CF07B6BB
:1078C00000FCFDCFF999FECF23E0FB012093570088
:1078D000E89507B600FCFDCF81E180935700E8955D
:1078E000089507B600FCFDCFF999FECF25E0FB0116
:1078F00020935700E89507B600FCFDCF81E1809307
:107900005700E895089507B600FCFDCFF999FECF22
:1079100021E0FB010A0120935700E8951124089506
:1079200021E2FC01209357008491089529E0FC0195
:107930002093570084910895E1E0F0E089E080937E
:1079400057008491089507B600FCFDCFF999FECF4A
:10795000809599E0E1E0F0E0082E90935700E895DB
:10796000089520918F01309190012617370750F02C
:107970006115710581F52091E8002E7F2093E800C4
:1079800020E030E060E00EC0453039F14091E80081
:1079900043FD25C04091E80042FD17C04091E8003A
:1079A00040FD1FC02115310511F4662371F04EB35F
:1079B0004111EACF82E008958EB38823D9F3853050
:1079C00061F08091E80083FD0AC08091E80082FFA9
:1079D000F3CF80E008959B01D5CF83E0089581E047
:1079E00008954091F20050E02115310599F04032A0
:1079F000510580F4FC0103C04032510559F08191DA
:107A00008093F100CF01215031094F5F5F4F211565
:107A1000310591F761E04032510509F060E0409195
:107A2000E8004E7F4093E800BDCFEBEEF0E08081B0
:107A300081608083EDEEF0E010826093EC00408383
:107A40008091EE00881F8827881F08958091890102
:107A500087FD11C003C08EB38823B9F08091E80080
:107A600080FFF9CF8091E8008E7F8093E800089531
:107A70008EB3882359F08091E80082FFF9CF80917E
:107A8000E8008B7F8093E80008950895089551D011
:107A900053D0E0EEF0E0808181608083E8EDF0E09B
:107AA00080818F77808319BCE3E6F0E0808181607C
:107AB00080831092880108953CD03ED08091D800F8
:107AC0008F778093D8008091D80080688093D80009
:107AD0008091D8008F7D8093D80084E089BD86E0B6
:107AE00089BD09B400FEFDCF1EBA1092870142E2A3
:107AF00060E080E09ADF8091E1008E7F8093E1007A
:107B00008091E20081608093E2008091E2008860D1
:107B10008093E2008091E0008E7F8093E0000895E2
:107B2000E3E6F0E080818E7F808381E080938801AE
:107B3000C3CF1092E20008951092E10008951F92C1
:107B40000F920FB60F9211242F933F934F935F9391
:107B50006F937F938F939F93AF93BF93EF93FF9315
:107B60008091E10080FF04C08091E20080FD61C04F
:107B70008091E10084FF27C08091E20084FF23C050
:107B800084E089BD86E089BD09B400FEFDCF809107
:107B9000D8008F7D8093D8008091E1008F7E809304
:107BA000E1008091E2008F7E8093E2008091E2000C
:107BB00081608093E20080918701882309F44CC0A2
:107BC00084E08EBB16D18091E10083FF21C08091BB
:107BD000E20083FF1DC08091E100877F8093E10078
:107BE00082E08EBB109287018091E1008E7F8093AE
:107BF000E1008091E2008E7F8093E2008091E200BC
:107C000080618093E20042E260E080E00EDFF1D02C
:107C1000FF91EF91BF91AF919F918F917F916F9164
:107C20005F914F913F912F910F900FBE0F901F903A
:107C300018958091E2008E7F8093E2008091E200AF
:107C400080618093E2008091D80080628093D800A8
:107C500019BC1EBACED08CCF8091E30087FF03C041
:107C600083E08EBBAFCF81E08EBBACCF1F93CF93B1
:107C7000DF9300D0CDB7DEB7E9E8F1E08091F10005
:107C8000819381E0E139F807C9F7C7DB8091E8000B
:107C900083FF0FC09091890180918A01863009F499
:107CA0004BC0D8F48823A9F1853019F4992309F43D
:107CB00076C08091E80083FF0AC08091E800877F4A
:107CC0008093E8008091EB0080628093EB000F903E
:107CD0000F90DF91CF911F910895883009F44CC027
:107CE000893039F79111E5CF80918B01823008F707
:107CF0009091E800977F9093E80080938701A6DE3B
:107D000080918701882309F46AC084E08EBB71D01A
:107D1000D0CF9D7F903869F68091E800877F80936F
:107D2000E8001092F1001092F1008091E8008E7F3F
:107D30008093E8008BDEBDCF9058923008F0B9CF29
:107D4000AE014F5F5F4F60918D0180918B019091EB
:107D50008C017ADD009709F4ACCF2091E800277FF1
:107D60002093E800BC0189819A81FBDD8091E800C5
:107D70008B7F8093E8009DCF903809F09ACF809157
:107D8000E800877F8093E800809187018093F1006D
:107D90008091E8008E7F8093E80058DE8ACF1091B2
:107DA0008B011F778091E3008078812B8093E30023
:107DB0008091E800877F8093E80048DE8091E800AA
:107DC00080FFFCCF8091E30080688093E300111175
:107DD00003C082E08EBB6DCF83E08EBB6ACF809103
:107DE000E30087FF03C084E08EBB91CF81E08EBBB0
:107DF0008ECF08958EB3882319F08091E80083FF19
:107E0000089534CFF999FECF92BD81BDF89A992794
:107E100080B50895262FF999FECF1FBA92BD81BD76
:107E200020BD0FB6F894FA9AF99A0FBE01960895FC
:047E3000F894FFCFF4
:107E3400020112034C00550046004100200044009A
:107E44004600550000002A034C005500460041003E
:107E540020002800410074006D0065006C002000C3
:107E640064006F006E006100740065006400290006
:107E740000000403090409021B0001010080320907
:107E840004000000FE0102000921030000000C10A0
:107E9400011201100100000020EB03F02F0000018B
:047EA40002000100D7
:107FA0008ECC9FCCB0CCBCCCC1CCC6CCCCCC0895B4
:087FB000089508950895089555
:107FE000DFCFDFCFDFCFDFCFDFCFDFCFDFCFDFCF21
:087FF000DFCFDFCFDFCFDFCFD1
:087FF8000070000010DFFBDC4B
:040000030000700089
:00000001FF
