:1000000095C00000AEC00000ACC00000AAC0000057
:10001000A8C00000A6C00000A4C00000A2C000004C
:10002000A0C000009EC000009CC0000025C40000CD
:10003000CFC4000096C0000094C0000092C0000031
:1000400090C000008EC000008CC000008AC000007C
:1000500088C0000086C0000084C00000C5C1000048
:1000600080C000007EC000007CC000007AC000009C
:1000700078C0000036035500320064007500690046
:100080006E006F002000410072006400750069007E
:100090006E006F002000500072006F006700720059
:1000A00061006D006D006500720000002A034C00C5
:1000B00055004600410020002800410074006D00FA
:1000C00065006C00200064006F006E006100740029
:1000D00065006400290000000403090409023E00D1
:1000E000020100C0320904000001020201000524DF
:1000F00000100104240206052406000107058203FE
:100100000800FF09040100020A00000007050402BC
:1001100010000507058302100005120110010200FE
:100120000008EB03602001000102DC0111241FBE66
:10013000CFEFD4E0DEBFCDBF11E0A0E0B1E0E2E25E
:10014000F1E102C005900D92AC31B107D9F712E090
:10015000ACE1B1E001C01D92A933B107E1F726D0AF
:10016000DEC74ECF84B7877F84BF88E10FB6F8948F
:1001700080936000109260000FBE90E080E80FB6A0
:10018000F89480936100909361000FBE8AB1806300
:100190008AB98BB180638BB960D38AEF87BD82E067
:1001A00084BD83E085BD5F9A579A0895DBDF0DE13A
:1001B00012E0F8012FB7F8948DE191E091838083EC
:1001C00093838283958384838DE192E097838683F2
:1001D00080E091E091878087138612862FBF789404
:1001E0008EE1E82E9AE0F92E20E3C22E34E6D32EDB
:1001F0008091C80085FD7FC0A99B75C0A89A809199
:100200002902882359F08091290281508093290284
:10021000811104C08BB180638BB95F9A80912C02ED
:10022000882351F080912C02815080932C028111FF
:1002300003C0C9B8D0922C0280912A02882341F0D1
:1002400080912A02815080932A02811101C05C9A18
:1002500080912B02882341F080912B028150809362
:100260002B02811101C05D9A8FB7F894C0912702CB
:10027000D09128028FBF80911B01815081F1809322
:100280001B01C93CD10578F1F0921B015D98E09209
:100290002B020BC02FB7F894828593850197938723
:1002A00082872FBF21972097F1F0E0911F02F091F4
:1002B0002002608180E091E078D5811114C0F801BE
:1002C000828193810196938382832681378182176D
:1002D000930701F78481958193838283DBCFF0922A
:1002E0001B01209799F680E091E0BAD514D5809152
:1002F000C80085FF81CF80E091E0C8D5892B09F443
:100300007BCF80E091E0E7D58093CE005C98E092CF
:100310002A0272CF84E680932C028BB180638F7E99
:100320008BB9089510922C028BB180638BB908951C
:1003300080E091E015D510922C02811106C09FEC4F
:100340008BB1806389238BB908959FEF8BB1806354
:1003500089238BB9089580E091E0EFC5CF93FC012C
:10036000818D8130E9F1823089F1C0E0808D823069
:1003700089F1828D873091F18830A1F1863009F4BE
:10038000C2601092C9001092C8001092CA0024895D
:10039000358946895789CA01B90196958795779518
:1003A000679560587B47814E9F4F97D62150310902
:1003B0003093CD002093CC00C093CA0082E080939C
:1003C000C80088E98093C900CF910895C0E2808D6C
:1003D000823079F6C860828D873071F6C460D1CFE3
:1003E000C0E3C4CFC660CDCF1F920F920FB60F925D
:1003F00011242F933F938F939F93AF93BF93EF93CA
:10040000FF939091CE008EB3843069F0FF91EF910D
:10041000BF91AF919F918F913F912F910F900FBE00
:100420000F901F901895EDE1F2E0A081B1819C93AF
:100430008081918101969183808326813781821703
:10044000930749F02FB7F894828593850196938797
:1004500082872FBFDBCF8481958191838083F2CF08
:10046000FC018089817090911C01911109C0882341
:1004700039F09BB19F7C9BB95F989AE090932902D9
:1004800080931C010895292F33272230310529F14B
:100490002330310599F02130310541F080E090E0C2
:1004A00020E030E0FA0131832083089582E190E07A
:1004B0002AE131E0FA0131832083089599278130C0
:1004C000910599F082309105B1F0892B39F7E8ED6B
:1004D000F0E0849190E09F01E5CF8EE390E02CED79
:1004E00030E0FA01318320830895ECEAF0E0849152
:1004F00090E09F01D7CFE4E7F0E0849190E09F0186
:10050000D1CF20913702309138022617370750F0AB
:100510006115710581F52091E8002E772093E800A0
:1005200020E030E060E00EC0453039F14091E80055
:1005300043FD25C04091E80042FD17C04091E8000E
:1005400040FD1FC02115310511F4662371F04EB333
:100550004111EACF82E008958EB38823D9F3853024
:1005600061F08091E80083FD0AC08091E80082FF7D
:10057000F3CF80E008959B01D5CF83E0089581E01B
:1005800008954091F20050E02115310599F048306E
:10059000510580F4FC0103C04830510559F08191A8
:1005A0008093F100CF01215031094F5F5F4F21153A
:1005B000310591F761E04830510509F060E0409164
:1005C000E8004E774093E800BDCF2091370230918C
:1005D00038022617370750F06115710589F520910B
:1005E000E8002E772093E80020E030E0FC0140E0B6
:1005F0000EC0853039F18091E80083FD25C08091DF
:10060000E80082FD17C08091E80080FD1FC0211521
:10061000310511F4442371F08EB38111EACF82E0E9
:1006200008958EB38823D9F3853061F08091E80076
:1006300083FD0AC08091E80082FFF3CF80E0089537
:100640009B01D4CF83E0089581E008958091F2006A
:1006500090E02115310519F08830910568F041E0EE
:10066000089709F040E08091E8008E778093E800D9
:10067000CECF8830910599F344914093F1003196A3
:100680002150310901962115310599F7E8CF8F7076
:100690008093E900EBEEF0E0808181608083EDEEF5
:1006A000F0E010826093EC0040838091EE00881FA0
:1006B0008827881F08950F931F93CF93DF93062FEA
:1006C000662371F1EC0110E05881552329F19C81DA
:1006D000E981FA816B81852F8F70853068F59230C2
:1006E00028F146E0E930F10528F128E030E090E01B
:1006F0009F5F220F331F2E173F07D0F39295907FF5
:10070000492B551F5527551F6295660F660F607C54
:10071000652BBDDF882381F01F5F25961013D4CF92
:1007200081E0DF91CF911F910F91089542E0E93070
:10073000F105D8F690E0E4CF80E0DF91CF911F91F2
:100740000F9108958091310287FD11C003C08EB3CF
:100750008823B9F08091E80080FFF9CF8091E8000C
:100760008E778093E80008958EB3882359F08091A6
:10077000E80082FFF9CF8091E8008B778093E80052
:100780000895089508952091E4003091E50045E62C
:100790008091EC0080FF1BC08091E80080FD1BC0B1
:1007A0008EB38823D1F08530D1F08091EB0085FDA8
:1007B00018C08091E4009091E5002817390741F3B3
:1007C000415089F09C018091EC0080FDE5CF809143
:1007D000E80082FFE5CF80E0089582E0089583E09D
:1007E000089581E0089584E0089540D042D080913A
:1007F000D8008F778093D8008091D800806880934C
:10080000D8008091D8008F7D8093D80084E089BD86
:1008100086E089BD09B400FEFDCF1EBA10922D02FC
:1008200010922F0210922E0242E060E080E02FDF53
:100830008091E1008E7F8093E1008091E2008160F1
:100840008093E2008091E20088608093E2008091D2
:10085000E0008E7F8093E0000895E3E6F0E0808181
:100860008E7F808381E080933002BFCF1092E200C0
:1008700008951092E10008951F920F920FB60F9203
:1008800011242F933F934F935F936F937F938F9395
:100890009F93AF93BF93EF93FF938091E10082FF0B
:1008A00004C08091E20082FD82C08091E10080FF5F
:1008B00004C08091E20080FD67C08091E10084FF68
:1008C00027C08091E20084FF23C084E089BD86E0D8
:1008D00089BD09B400FEFDCF8091D8008F7D809343
:1008E000D8008091E1008F7E8093E1008091E2004A
:1008F0008F7E8093E2008091E20081608093E2002D
:1009000080912D02882309F459C084E08EBB02DD5A
:100910008091E10083FF04C08091E20083FD11C05B
:10092000FF91EF91BF91AF919F918F917F916F91C7
:100930005F914F913F912F910F900FBE0F901F909D
:1009400018958091E100877F8093E10082E08EBB63
:1009500010922D028091E1008E7F8093E1008091C2
:10096000E2008E7F8093E2008091E20080618093BC
:10097000E20042E060E080E08ADE8091F000886082
:100980008093F000C7D1CCCF8091E2008E7F80931E
:10099000E2008091E20080618093E2008091D800C3
:1009A00080628093D80019BC1EBABCDC86CF8091CF
:1009B000E1008B7F8093E100ADD177CF8091E300A0
:1009C00087FF03C083E08EBBA2CF81E08EBB9FCFA9
:1009D0001F920F920FB60F9211242F933F934F93B4
:1009E0005F936F937F938F939F93AF93BF93CF93B7
:1009F000EF93FF93C091E900CF708091EC001092CB
:100A0000E9008091F000877F8093F00078941BD0FC
:100A10001092E9008091F00088608093F000C0930C
:100A2000E900FF91EF91CF91BF91AF919F918F918D
:100A30007F916F915F914F913F912F910F900FBEDA
:100A40000F901F9018951F93CF93DF93CDB7DEB70C
:100A5000AA970FB6F894DEBF0FBECDBFE1E3F2E078
:100A60008091F100819322E0E933F207C9F773DC4A
:100A70008091E80083FF10C0909131028091320292
:100A80008530A1F108F476C08830F1F0893009F49E
:100A9000ADC0863009F449C08091E80083FF0AC0E8
:100AA0008091E800877F8093E8008091EB0080626E
:100AB0008093EB00AA960FB6F894DEBF0FBECDBFB1
:100AC000DF91CF911F910895903831F78091E80020
:100AD000877F8093E80080912D028093F1008091C0
:100AE000E8008E778093E8002DDED6CF9111D4CF29
:100AF000109133021F778091E3008078812B8093DF
:100B0000E3008091E800877F8093E8001BDE8091FE
:100B1000E80080FFFCCF8091E30080688093E300D1
:100B20001111B1C082E08EBBB7CF9058923008F05F
:100B3000B3CF80913302909134028C3D23E0920731
:100B400009F4A4C0AE014F5F5F4F609135029BDC9A
:100B5000009709F4A1CF2091E800277F2093E800B7
:100B6000BC0189819A8131DD8091E8008B77809387
:100B7000E80092CF813029F008F450C0833009F0AA
:100B80008BCF992309F46BC0923009F085CF9091F7
:100B90003302911122C0209135022F7009F47CCFCD
:100BA0002093E9009091EB0090FF17C0833009F487
:100BB000ABC08091EB0080618093EB0081E090E01E
:100BC00001C0880F2A95EAF78093EA001092EA00A4
:100BD0008091EB0088608093EB001092E900809197
:100BE000E800877F8093E800ADDD56CF911154CFA8
:100BF00080913302823008F04FCF9091E800977FC8
:100C00009093E80080932D029DDD80912D02882332
:100C100009F470C084E08EBB8BDB3ECF903859F175
:100C2000923809F039CF809135028F708093E900B6
:100C30009091EB0095FB992790F91092E900809133
:100C4000E800877F8093E8009093F1001092F10014
:100C50008091E8008E778093E80074DD1DCF90913D
:100C60003302913009F018CF91E0833009F090E021
:100C700090932F02B2CF90912E0280912F02882361
:100C8000F1F29260DCCF83E08EBB06CF83E08A83F3
:100C90008AE289835FB7F894DE01139620E03EE094
:100CA00041E207C090E0C7968D939D932F5F24315A
:100CB00081F0E32FF0E040935700849120FF03C0C0
:100CC00082958F703F5F8F708A3060F790E0C0969A
:100CD000EBCF5FBF8091E800877F8093E8006AE2F6
:100CE00070E0CE0101960DDC8091E8008B77809357
:100CF000E800D2CE8091E30087FF03C084E08EBB82
:100D00008BCF81E08EBB88CF8091EB008062809397
:100D1000EB0063CF0895CF938EB38823A1F0809129
:100D2000E9008F709091EC0090FD0FC090E0C92F0A
:100D3000C82B1092E9009091E80093FD0FC08C2F12
:100D40008F708093E900CF91089590E8C92FC82B48
:100D50001092E9009091E80093FFF1CF74DEEFCF9D
:100D6000CF93DF93EC01FC0170968BE0DF011D92C5
:100D70008A95E9F782E08C83898783E08E8761E03A
:100D8000CE01019698DC811104C080E0DF91CF9103
:100D9000089561E0CE0106968EDC8823B1F361E010
:100DA000CE010B96DF91CF9186CC0F931F93CF93FB
:100DB000DF931F92CDB7DEB72EB3243039F082E037
:100DC0000F90DF91CF911F910F910895FC0104893D
:100DD000158926893789012B022B032B81F3818109
:100DE0008F708093E9008091E80085FF04C06093D4
:100DF000F10080E0E5CF8091E8008E778093E800F5
:100E00006983C1DC6981882391F3DACF2EB3243062
:100E100011F082E00895FC0144895589668977893B
:100E2000452B462B472BA9F381818F708093E900D6
:100E30008091F200882349F09091E8008091E800C9
:100E40008E778093E80095FF02C080E008959BDCD8
:100E50008111E0CF8091E8008E778093E800F5CF94
:100E60002EB3243009F00895FC0144895589668920
:100E70007789452B462B472BB1F321812F70209387
:100E8000E9002091E80020FFEECFC0CF2EB3243040
:100E900019F080E090E00895FC0144895589668945
:100EA0007789452B462B472BA1F386818F70809342
:100EB000E9008091E80082FFECCF8091F200882366
:100EC00021F08091F20090E008958091E8008B7706
:100ED0008093E800DECF2EB3243019F5FC0144895D
:100EE000558966897789452B462B472BD1F086811A
:100EF0008F708093E9008091E80082FF12C080919A
:100F0000F200882389F02091F10030E08091F20016
:100F1000811110C08091E8008B778093E800C901AF
:100F200008958FEF9FEF08952FEF3FEF8091F2002C
:100F3000882381F3C901089508950F931F93CF93D8
:100F4000DF9300D0CDB7DEB72091E80023FF0AC0C1
:100F5000FC01208130E04091350250913602421769
:100F6000530739F00F900F90DF91CF911F910F91A0
:100F7000089520913202213209F457C0E0F0223264
:100F800009F48EC0233271F720913102213251F7DA
:100F90002091E800277F2093E80089839A83D2DBA1
:100FA0006091330289819A810F900F90DF91CF91E8
:100FB0001F910F91C1CF2032A9F620913102213229
:100FC00089F62091E800277F2093E80003C02EB324
:100FD000222341F22091E80022FFF9CF5091F10045
:100FE0004091F1003091F1002091F100FC01548B0F
:100FF000458B368B278B2091F100208F2091F100BB
:10100000218F2091F100228F2091E8002B772093EF
:10101000E80089839A8396DB89819A810F900F90EB
:10102000DF91CF911F910F9199C920913102213AFF
:1010300009F098CF2091E800277F2093E8002091C5
:10104000E80020FFFCCFFC01448955896689778937
:101050004093F100052F162F272F33270093F1001F
:101060008B01222733270093F100472F552766274E
:1010700077274093F100208D2093F100218D20935C
:10108000F100828D8093F1008091E8008E7780934B
:10109000E8000F900F90DF91CF911F910F9152CBED
:1010A00020913102213209F05DCF2091E800277FA5
:1010B0002093E80089839A8345DB209133023091A5
:1010C000340289819A81FC01318B208B0F900F9023
:1010D000DF91CF911F910F91C3C9A1E21A2EAA1BD4
:1010E000BB1BFD010DC0AA1FBB1FEE1FFF1FA217D8
:1010F000B307E407F50720F0A21BB30BE40BF50BD5
:10110000661F771F881F991F1A9469F7609570955D
:10111000809590959B01AC01BD01CF010895F89495
:02112000FFCFFF
:101122000083100000010410000001820800000189
:0C11320000000000000000000000000AA7
:00000001FF
