:1000000095C00000AEC00000ACC00000AAC0000057
:10001000A8C00000A6C00000A4C00000A2C000004C
:10002000A0C000009EC000009CC0000049C40000A9
:10003000F3C4000096C0000094C0000092C000000D
:1000400090C000008EC000008CC000008AC000007C
:1000500088C0000086C0000084C00000CFC100003E
:1000600080C000007EC000007CC000007AC000009C
:1000700078C0000036035500320064007500690046
:100080006E006F002000410072006400750069007E
:100090006E006F002000500072006F006700720059
:1000A00061006D006D006500720000002A034C00C5
:1000B00055004600410020002800410074006D00FA
:1000C00065006C00200064006F006E006100740029
:1000D00065006400290000000403090409023E00D1
:1000E000020100C0320904000001020201000524DF
:1000F00000100104240206052406000107058203FE
:100100000800FF09040100020A00000007050402BC
:1001100010000507058302100005120110010200FE
:100120000008EB03602001000102DC0111241FBE66
:10013000CFEFD4E0DEBFCDBF11E0A0E0B1E0E2E15F
:10014000F1E102C005900D92AC31B107D9F722E080
:10015000ACE1B1E001C01D92A933B207E1F729D0AB
:10016000D6C74ECF84B7877F84BF0FB6F894A895C3
:1001700080916000886180936000109260000FBEE3
:1001800090E080E80FB6F89480936100909361004E
:100190000FBE8AB180638AB98BB180638BB981D37A
:1001A0008AEF87BD82E084BD83E085BD5F9A579A60
:1001B0000895D8DFEDE1F2E02FB7F8948DE191E0FA
:1001C0009183808393838283958384838DE192E0FE
:1001D0009783868380E091E09187808713861286DB
:1001E0002FBF78948EE1E82ECDE1D2E09AE0F92E8F
:1001F00020E3C22E34E6D32E4DC0A99B47C0A89A57
:1002000080912902882359F080912902815080939E
:100210002902811104C08BB180638BB95F9A8091F0
:100220002C02882351F080912C02815080932C0263
:10023000811103C0C9B8D0922C0280912A02882370
:1002400041F080912A02815080932A02811101C0DD
:100250005C9A80912B02882341F080912B0281507F
:1002600080932B02811101C05D9A8FB7F8940091A1
:100270002702109128028FBF80911B018150E9F065
:10028000093C110508F047C080931B0180E091E014
:10029000FAD562D58091C80085FFAFCF80E091E0AC
:1002A00009D6892B09F4A9CF80E091E028D6809364
:1002B000CE005C98E0922A02A0CFF0921B010115BB
:1002C000110521F35D98E0922B020BC02FB7F89433
:1002D000828593850197938782872FBF01501109EB
:1002E000A9F2E0911F02F0912002608180E091E08C
:1002F0007AD58111CBCFFE018281938101969383C0
:100300008283268137818217930701F78481958143
:1003100093838283DBCFF0921B015D98E0922B02E6
:10032000E0CF84E680932C028BB180638F7E8BB903
:10033000089510922C028BB180638BB9089580E0F0
:1003400091E02CD510922C02811106C09FEC8BB14C
:10035000806389238BB908959FEF8BB180638923D4
:100360008BB9089580E091E0F6C5CF93FC01818DB3
:10037000813009F43FC0823099F1C0E0808D823035
:1003800099F1828D8730A1F18830B1F1863009F47E
:10039000C2601092C9001092C8001092CA0024894D
:1003A000358946895789DA01C901B695A795979588
:1003B0008795BC01CD0160587B47814E9F4F85D604
:1003C000215031093093CD002093CC00C093CA0056
:1003D00082E08093C80088E98093C900CF91089596
:1003E000C0E2808D823069F6C860828D873061F608
:1003F000C460CFCFC0E3C2CFC660CBCF1F920F92F5
:100400000FB60F9211242F933F938F939F93AF9327
:10041000BF93EF93FF939091CE008EB3843069F039
:10042000FF91EF91BF91AF919F918F913F912F914C
:100430000F900FBE0F901F901895EDE1F2E0A08194
:10044000B1819C93808191810196918380832681E3
:1004500037818217930749F02FB7F89482859385E7
:100460000196938782872FBFDBCF8481958191830B
:100470008083F2CFFC018089918981709927282F90
:10048000217030911C01311109C0892B39F08BB1D9
:100490008F7C8BB95F988AE08093290220931C019E
:1004A0000895292F33272230310529F123303105D2
:1004B00099F02130310541F080E090E020E030E01B
:1004C000FA0131832083089582E190E02AE131E04E
:1004D000FA0131832083089599278130910599F09D
:1004E00082309105B1F0892B39F7E8EDF0E0849185
:1004F00090E09F01E5CF8EE390E02CED30E0FA0133
:10050000318320830895ECEAF0E0849190E09F012C
:10051000D7CFE4E7F0E0849190E09F01D1CF209124
:100520003702309138022617370750F061157105F0
:1005300089F52091E8002E772093E80020E030E054
:10054000FC0140E00EC0853039F18091E80083FD68
:1005500025C08091E80082FD17C08091E80080FDF1
:100560001FC02115310511F4442371F08EB38111A0
:10057000EACF82E008958EB38823D9F3853061F005
:100580008091E80083FD0AC08091E80082FFF3CFEC
:1005900080E008959B01D4CF83E0089581E0089521
:1005A0008091F20090E02115310519F08830910515
:1005B00068F041E0089709F040E08091E8008E770C
:1005C0008093E800CECF8830910599F34191409314
:1005D000F10021503109019621153105A1F7E9CF2C
:1005E00020913702309138022617370750F06115F5
:1005F000710589F52091E8002E772093E80020E02E
:1006000030E0FC0140E00EC0853039F18091E80017
:1006100083FD25C08091E80082FD17C08091E8002D
:1006200080FD1FC02115310511F4442371F08EB3F4
:100630008111EACF82E008958EB38823D9F3853003
:1006400061F08091E80083FD0AC08091E80082FF9C
:10065000F3CF80E008959B01D4CF83E0089581E03B
:1006600008958091F20090E02115310519F088304D
:10067000910568F041E0089709F040E08091E800BA
:100680008E778093E800CECF8830910599F344911E
:100690004093F10031962150310901962115310521
:1006A00099F7E8CF8F708093E900EBEEF0E080815E
:1006B00081608083EDEEF0E010826093EC00408377
:1006C0008091EE00881F8827881F0895EF92FF927F
:1006D0000F931F93CF93DF93662309F444C0EC017B
:1006E0007C0184E0E80EF11C6150862F90E00196B9
:1006F0008C01000F111F000F111F080F191F0C0F85
:100700001D1F5881552341F1F7019081E981FA813C
:10071000D70111976C91852F8F70853090F59230AD
:1007200050F146E0E930F10550F128E030E090E08A
:100730009F5F220F331F2E173F07D0F39295907FB4
:10074000492B6295660F660F607C551F5527551F14
:10075000652BA8DF8823A9F02596E5E0EE0EF11CB5
:10076000C017D10771F681E0DF91CF911F910F91F2
:10077000FF90EF90089542E0E930F105B0F690E087
:10078000DFCF80E0DF91CF911F910F91FF90EF902D
:1007900008958091310287FF04C010C08EB3882372
:1007A00049F08091E80080FFF9CF8091E8008E77D2
:1007B0008093E80008958EB38823E1F38091E800E8
:1007C00082FFF9CF8091E8008B778093E80008954D
:1007D0004091E4005091E50025E69091EC00892FCE
:1007E000817090FF19C08091E80080FD20C08EB319
:1007F0008823B9F08530B9F08091EB0085FD15C0F4
:100800008091E4009091E5008417950731F3AC01E5
:10081000215019F784E008959091E80092FFE7CF06
:10082000089582E0089583E0089581E0089580E0CE
:10083000089540D042D08091D8008F778093D8001F
:100840008091D80080688093D8008091D8008F7DF7
:100850008093D80084E089BD86E089BD09B400FE9C
:10086000FDCF1EBA10922D0210922F0210922E026E
:1008700042E060E080E016DF8091E1008E7F8093AF
:10088000E1008091E20081608093E2008091E200CB
:1008900088608093E2008091E0008E7F8093E0008A
:1008A0000895E3E6F0E080818E7F808381E080938D
:1008B0003002BFCF1092E20008951092E100089537
:1008C0001F920F920FB60F9211242F933F934F93C5
:1008D0005F936F937F938F939F93AF93BF93EF93A8
:1008E000FF938091E10082FF04C08091E20082FDCD
:1008F00082C08091E10080FF04C08091E20080FD11
:1009000067C08091E10084FF27C08091E20084FFEE
:1009100023C084E089BD86E089BD09B400FEFDCF17
:100920008091D8008F7D8093D8008091E1008F7EE8
:100930008093E1008091E2008F7E8093E2008091BD
:10094000E20081608093E20080912D02882309F407
:1009500059C084E08EBBE5DC8091E10083FF04C0D8
:100960008091E20083FD11C0FF91EF91BF91AF91A3
:100970009F918F917F916F915F914F913F912F91B7
:100980000F900FBE0F901F9018958091E100877F08
:100990008093E10082E08EBB10922D028091E100F5
:1009A0008E7F8093E1008091E2008E7F8093E20051
:1009B0008091E20080618093E20042E060E080E0AC
:1009C00071DE8091F00088608093F000C4D1CCCFBC
:1009D0008091E2008E7F8093E2008091E20080614E
:1009E0008093E2008091D80080628093D80019BC87
:1009F0001EBA9FDC86CF8091E1008B7F8093E1005F
:100A0000AAD177CF8091E30087FD03C081E08EBB40
:100A1000A2CF83E08EBB9FCF1F920F920FB60F9293
:100A200011242F933F934F935F936F937F938F93F3
:100A30009F93AF93BF93CF93EF93FF93C091E90040
:100A4000CF708091EC001092E9008091F000877FD8
:100A50008093F00078941BD01092E9008091F00010
:100A600088608093F000C093E900FF91EF91CF91EF
:100A7000BF91AF919F918F917F916F915F914F91B6
:100A80003F912F910F900FBE0F901F9018951F93BD
:100A9000CF93DF93CDB7DEB7AA970FB6F894DEBF3A
:100AA0000FBECDBFE1E3F2E08091F100819322E03F
:100AB000E933F207C9F756DC8091E80083FF10C0E4
:100AC00090913102809132028530A1F108F476C014
:100AD0008830F1F0893009F4AFC0863009F449C09C
:100AE0008091E80083FF0AC08091E800877F8093AF
:100AF000E8008091EB0080628093EB00AA960FB62D
:100B0000F894DEBF0FBECDBFDF91CF911F91089546
:100B1000903831F78091E800877F8093E8008091DA
:100B20002D028093F1008091E8008E778093E80099
:100B300030DED6CF9111D4CF109133021F77809140
:100B4000E3008078812B8093E3008091E800877F29
:100B50008093E8001EDE8091E80080FFFCCF80914A
:100B6000E30080688093E3001111B6C082E08EBB81
:100B7000B7CF9058923008F0B3CF80913302909164
:100B800034028C3D53E0950709F4ABC0AE014F5FD2
:100B90005F4F6091350285DCBC01892B09F4A0CF41
:100BA0009091E800977F9093E80089819A8118DD01
:100BB0008091E8008B778093E80092CF813029F014
:100BC00008F455C0833009F08BCF992309F470C025
:100BD000923009F085CF90913302911124C0909109
:100BE00035029F7009F47CCF9093E9002091EB00CF
:100BF00020FF19C0833009F4A8C08091EB00806108
:100C00008093EB0021E030E0A90102C0440F551FA2
:100C10009A95E2F74093EA001092EA008091EB0087
:100C200088608093EB001092E9008091E800877F54
:100C30008093E800AEDD54CF911152CF8091330202
:100C4000823008F04DCF9091E800977F9093E800B4
:100C500080932D029EDD80912D02811140C08091F4
:100C6000E30087FD3CC081E08EBB69DB39CF903863
:100C700059F1923809F034CF809135028F7080930A
:100C8000E9008091EB0085FB882780F91092E9004C
:100C90009091E800977F9093E8008093F100109284
:100CA000F1008091E8008E778093E80072DD18CF24
:100CB00090913302913009F013CF91E0833009F025
:100CC00090E090932F02AFCF80912E0290912F024F
:100CD0009923F1F28260DCCF83E08EBB01CF84E008
:100CE000C3CF83E08A838AE289835FB7F894DE0109
:100CF000139620E03EE041E207C090E0C7968D9356
:100D00009D932F5F243181F0E32FF0E04093570053
:100D1000849120FF03C082958F703F5F8F708A306F
:100D200060F790E0C096EBCF5FBF8091E800877FCF
:100D30008093E8006AE270E0CE010196F0DB8091DA
:100D4000E8008B778093E800CBCE8091EB00806247
:100D50008093EB0068CF0895CF938EB3882391F0F2
:100D6000C091E900CF708091EC0080FD0DC080E063
:100D7000C82B1092E9008091E80083FD0DC0CF7070
:100D8000C093E900CF91089580E8C82B1092E90044
:100D90008091E80083FFF3CF7ADEF1CFCF93DF932A
:100DA000EC01FC0170968BE0DF011D928A95E9F75A
:100DB00082E08C83898783E08E8761E0CE01019693
:100DC00085DC811104C080E0DF91CF91089561E05E
:100DD000CE0106967BDC8823B1F361E0CE010B9651
:100DE000DF91CF9173CCCF93FC019EB3943019F077
:100DF00082E0CF91089584899589A689B789892B46
:100E00008A2B8B2BA9F3C62F81818F708093E900E9
:100E10008091E80085FF04C0C093F10080E0E9CF35
:100E20008091E8008E778093E800D2DC8823A1F3DC
:100E3000E0CFFC019EB3943011F082E008958489E4
:100E40009589A689B789892B8A2B8B2BB1F3818150
:100E50008F708093E9008091F200882349F090918F
:100E6000E8008091E8008E778093E80095FF02C04B
:100E700080E00895ADDC8111E1CF8091E8008E77AC
:100E80008093E800F5CFFC019EB3943009F00895FB
:100E900084899589A689B789892B8A2B8B2BB9F3ED
:100EA00081818F708093E9008091E80080FFEFCF0F
:100EB000CF01BFCFFC019EB3943019F080E090E0E9
:100EC000089584899589A689B789892B8A2B8B2BCC
:100ED000A9F386818F708093E9008091E80082FFFA
:100EE000EDCF8091F200882321F08091F20090E014
:100EF00008958091E8008B778093E800DFCF2EB3D0
:100F0000243011F5FC014489558966897789452B80
:100F1000462B472BC9F086818F708093E900809122
:100F2000E80082FF11C08091F200882381F0809157
:100F3000F10090E02091F200211105C02091E8001D
:100F40002B772093E80008958FEF9FEF08958FEFA0
:100F50009FEFF0CF08950F931F93CF93DF932091CE
:100F6000E80023FF0AC0FC01208130E040913502F7
:100F7000509136024217530729F0DF91CF911F910C
:100F80000F91089520913202213209F44EC0EC01F4
:100F90002232B8F0223209F481C0233271F78091F5
:100FA0003102813251F78091E800877F8093E80019
:100FB000F0DB60913302CE01DF91CF911F910F9151
:100FC000C9CF2032D1F6809131028132B1F68091C1
:100FD000E800877F8093E80003C09EB3992369F2FD
:100FE0009091E80092FFF9CF3091F1002091F1004B
:100FF0009091F1008091F1003C8B2D8B9E8B8F8B1B
:101000008091F100888F8091F100898F8091F100AB
:101010008A8F8091E8008B778093E800BADBCE015D
:10102000DF91CF911F910F91A0C920913102213AF8
:1010300009F0A3CF2091E800277F2093E8002091BA
:10104000E80020FFFCCFFC01448955896689778937
:101050004093F100052F162F272F33270093F1001F
:101060008B01222733270093F100472F552766274E
:1010700077274093F100208D2093F100218D20935C
:10108000F100828D8093F1008091E8008E7780934B
:10109000E800DF91CF911F910F917BCB80913102BE
:1010A000813209F06ACF8091E800877F8093E80061
:1010B00070DB8091330290913402998B888BCE0142
:1010C000DF91CF911F910F91D5C9A1E21A2EAA1BD2
:1010D000BB1BFD010DC0AA1FBB1FEE1FFF1FA217E8
:1010E000B307E407F50720F0A21BB30BE40BF50BE5
:1010F000661F771F881F991F1A9469F7609570956E
:10110000809590959B01AC01BD01CF010895F894A5
:02111000FFCF0F
:101112000083100000010410000001820800000199
:0C11220000000000000000000000000AB7
:00000001FF
