:1070000039C000009BC0000099C0000097C000007C
:1070100095C0000093C0000091C000008FC0000028
:107020008DC000008BC0000089C00000C4C50000F6
:1070300085C0000083C0000081C000007FC0000048
:107040007DC000007BC000000EC2000077C00000C1
:1070500075C0000073C0000071C000006FC0000068
:107060006DC000006BC0000069C0000067C0000078
:1070700065C0000011241FBECFEFD4E0DEBFCDBF3E
:10708000E3E0F0E089E08093570084918E7F91F0F7
:1070900004B601FE0AC021E0809191019091920115
:1070A00082349C4D19F020E001C021E084B78D7F2F
:1070B00084BF11C004B603FE0AC021E08091910193
:1070C0009091920182349C4D19F020E001C020E0A3
:1070D00084B7877F84BF80E090E0FC0145915491A4
:1070E0002223B9F04F3F5F4FA1F024B7277F24BF81
:1070F0000FB6F894A8952091600028612093600055
:10710000109260000FBE1092920110929101FC014A
:10711000099511E0A0E0B1E0E2EAFEE702C00590C7
:107120000D92A437B107D9F721E0A4E7B1E001C07F
:107130001D92A139B207E1F74DD1B1C661CF8823C5
:10714000A1F09091F200911111C09091E8009B7F05
:107150009093E80003C09EB3992339F09091E80022
:1071600092FFF9CF81508111ECCF08959091F100F9
:107170008150F9CFECE7F1E0358124819381828160
:107180009093760180937701C90190937401809365
:10719000750108951F93CF93DF9300D01F92CDB751
:1071A000DEB7809186018823F1F080917C018430E4
:1071B00009F445C0853009F04AC080E289838CED2E
:1071C0008A838BEF8B8380917E0190917D01911159
:1071D000A3C0833008F0B1C0FE01E80FF11D81812A
:1071E00080937B013FC080917C01843009F458C0BA
:1071F00008F07EC0813009F43CC0833099F580915D
:107200007D01982F9D7F09F49FC0813059F5E0E002
:10721000F0E005C03196E11520E7F20719F18491FD
:107220008F3FC1F310927801F0937701E0937601DC
:107230008AE08093000185E08093840113C08091EF
:107240007D01811104C080917E018F3FA1F18AE010
:107250008093000183E0809384018091EB00806241
:107260008093EB000F900F900F90DF91CF911F91C3
:10727000089510917D011230A8F77CDF11110CC028
:10728000809176019091770123E0FC0120935700D3
:10729000E89507B600FCFDCF85E080930001E2CFC2
:1072A00080917D01833009F454C08111DBCF80913E
:1072B0007E018F3FB9F6E0E0F0E093E085E0909347
:1072C0005700E89507B600FCFDCF80935700E8957E
:1072D00007B600FCFDCFE058FF4FE11520E7F207AD
:1072E00071F781E180935700E89510928601BACF3B
:1072F000853009F462CF863009F0B4CF80917D01EA
:10730000833009F0AFCF80917E018111ABCF8091A6
:107310007F0180937801A6CF913009F0A3CF81330C
:1073200009F454C008F44BC0803609F444C08136D7
:1073300021F48AE880937B0195CF8AE08093000155
:1073400088E0809384018ECF15DF89E0809300016F
:1073500089CF81E080938501E0918201F0918301E2
:1073600080917E01309761F0813009F07BCF909160
:107370008101809180019093790180937A0172CF8D
:10738000882341F085919491019609F06BCF10927A
:10739000010168CF82E49CED90939201809391016A
:1073A0009CE088E10FB6F894A895809360000FBE2A
:1073B0009093600057CF85E980937B0153CF803352
:1073C00009F0BBCF88E580937B014CCF8EE18093A1
:1073D0007B0148CF84B7877F84BF0FB6F894A89508
:1073E00080916000886180936000109260000FBE01
:1073F00090E080E80FB6F89480936100909361006C
:107400000FBEC1E0C5BF82E085BFC6D38AB180632D
:107410008AB98BB180638BB9C0936F0083E080938E
:1074200081008BB180638F7E8BB9789401C019D5B0
:10743000809101018111FBCF809185018111F7CFEE
:1074400062D38AB18F7C8AB98BB18F7C8BB9109251
:107450006F001092810081E085BF15BEE091790137
:10746000F0917A0109951F920F920FB60F92112495
:107470008F9380E389B98F910F900FBE0F901F906B
:1074800018958F929F92AF92BF92CF92DF92EF9218
:10749000FF92CF93DF93809189018F77813259F0EA
:1074A000DF91CF91FF90EF90DF90CF90BF90AF90A2
:1074B0009F908F90089580E389B980918F0190917A
:1074C0009001909383018093820180918A0183309F
:1074D000D9F1D0F0853009F4F4C008F4EAC0863060
:1074E000F9F68091E800877F8093E80082E080933E
:1074F0000001DF91CF91FF90EF90DF90CF90BF9090
:10750000AF909F908F90E0C2813009F441C08230EB
:1075100039F68091E800877F8093E80004C08EB33D
:10752000882309F4BDCF8091E80080FFF8CF8091D7
:107530000001893009F4E1C08A3009F41CC180914E
:107540007B018093F100CFC08091E800877F80931A
:10755000E80004C08EB3882309F4A2CF8091E8002C
:1075600080FFF8CF809184018093F1001092F100A8
:107570001092F1001092F100809100018093F100CF
:107580001092F1008091E8008E7F8093E800B1CFE7
:107590008091E800877F8093E800809185018111C8
:1075A000A8C020918201309183012115310589F411
:1075B00080910001853019F482E080930001809170
:1075C000E8008B7F8093E80094CF8EB3882309F482
:1075D00067CF8091E80082FFF8CF8091F10080931F
:1075E0007C01215031093093830120938201EDE722
:1075F000F1E08091F200882381F08091F100819385
:1076000080918201909183010197909383018093EF
:10761000820181E0E238F80761F7BCDD809100016A
:10762000853069F68091820190918301892B21F246
:107630008AE185DDC0917601D09177018C2F8F7121
:107640007EDD20917401309175012F5F3F4F2C1B1F
:107650003D0B80917D01882309F4A2C021153105DD
:1076600029F1E9018091F20081110EC08091E800BA
:107670008B7F8093E80004C08EB3882309F410CF79
:107680008091E80082FFF8CF6091F100809176014F
:1076900090917701F6D380917601909177010196D0
:1076A00090937701809376012197E1F680E147DDA1
:1076B00086CF8091E800877F8093E8001092840154
:1076C00018CF8091E800877F8093E80004C08EB3D4
:1076D000882309F4E5CE8091E80080FFF8CF8091FF
:1076E00000018093F1008091E8008E7F8093E80094
:1076F00000CF50DD1092850154CF8091760190919A
:107700007701E0917401F0917501EF012196C81B9A
:10771000D90B20917D0121113CC0D695C795AC01B4
:1077200080917801682F70E0209709F4BCC09E0119
:107730000FC0FA01859194918093F1009093F1002C
:107740004E5F5F4F6F4F7F4F2150310909F4A7C043
:107750008091F200803269F78091E8008E7F8093FB
:10776000E80004C08EB3882309F49ACE8091E80023
:1077700080FFF8CFDECF80917D01813009F0DFCE30
:1077800090917601809177019093F1008093F100C0
:10779000AACF223009F45AC082E080930001A3CF1F
:1077A00036952795AE0180917801682F70E04A01E7
:1077B0005B01A0E0B1E0C5E0D3E02115310509F49B
:1077C00077C08091F20081110EC08091E8008B7F1C
:1077D0008093E80004C08EB3882309F461CE8091C1
:1077E000E80082FFF8CF21503109F091F100E091DB
:1077F000F1008F2F9E2FFA010C01B0935700E895EE
:107800001124AF5F6A017B01F2E0CF0ED11CE11CB5
:10781000F11CB701A601A03419F02115310569F654
:10782000F401C0935700E89507B600FCFDCF211581
:10783000310509F4C2CFF601D0935700E89507B699
:1078400000FCFDCF46015701A0E0B7CF209781F49F
:10785000A3CF0FD38093F1008091760190917701AF
:1078600001969093770180937601219709F494CF44
:107870002091F200203269F78091E8008E7F80939A
:10788000E80004C08EB3882309F40ACE8091E80092
:1078900080FFF8CF8091760190917701DACFE09167
:1078A0007401F0917501F0937701E093760174CF44
:1078B0008091740190917501909377018093760186
:1078C00081E180935700E895F1CE292F30E02230F6
:1078D000310501F12330310599F02130310541F0B6
:1078E00080E090E020E030E0FA01318320830895C9
:1078F00082E190E021E631E0FA01318320830895AE
:10790000811110C084E090E022E431E0FA0131837B
:10791000208308958BE190E026E431E0FA01318381
:1079200020830895813039F08230D1F682E190E0F1
:1079300022E031E0D9CF8AE290E026E131E0D4CFF5
:1079400007B600FCFDCFF999FECF23E0FB012093A1
:107950005700E89507B600FCFDCF81E18093570002
:10796000E895089507B600FCFDCFF999FECF25E014
:10797000FB0120935700E89507B600FCFDCF81E19D
:1079800080935700E895089507B600FCFDCFF9995C
:10799000FECF21E0FB010A0120935700E895112456
:1079A000089521E2FC01209357008491089529E075
:1079B000FC012093570084910895E1E0F0E089E014
:1079C000809357008491089507B600FCFDCFF99984
:1079D000FECF809599E0E1E0F0E0082E909357000B
:1079E000E895089520918F0130919001261737076F
:1079F00050F06115710589F52091E8002E7F2093E4
:107A0000E80020E030E0FC0140E00EC0853039F1B4
:107A10008091E80083FD25C08091E80082FD17C0B9
:107A20008091E80080FD1FC02115310511F4442329
:107A300071F08EB38111EACF82E008958EB388236E
:107A4000D9F3853061F08091E80083FD0AC0809110
:107A5000E80082FFF3CF80E008959B01D4CF83E05C
:107A6000089581E008958091F20090E0211531059C
:107A700019F08032910568F041E0809709F040E00C
:107A80008091E8008E7F8093E800CECF8032910510
:107A900099F341914093F10021503109019621154C
:107AA0003105A1F7E9CFEBEEF0E0808181608083C2
:107AB000EDEEF0E010826093EC0040838091EE00E8
:107AC000881F8827881F08958091890187FF04C037
:107AD00010C08EB3882349F08091E80080FFF9CF71
:107AE0008091E8008E7F8093E80008958EB388230C
:107AF000E1F38091E80082FFF9CF8091E8008B7F6D
:107B00008093E800089551D053D0E0EEF0E08081FA
:107B100081608083E8EDF0E080818F77808319BCFD
:107B2000E3E6F0E08081816080831092880108950F
:107B30003CD03ED08091D8008F778093D800809140
:107B4000D80080688093D8008091D8008F7D809382
:107B5000D80084E089BD86E089BD09B400FEFDCF70
:107B60001EBA1092870142E260E080E09CDF8091C3
:107B7000E1008E7F8093E1008091E200816080933C
:107B8000E2008091E20088608093E2008091E00052
:107B90008E7F8093E0000895E3E6F0E080818E7FA1
:107BA000808381E080938801C3CF1092E200089522
:107BB0001092E10008951F920F920FB60F921124B8
:107BC0002F933F934F935F936F937F938F939F93E5
:107BD000AF93BF93EF93FF938091E10080FF04C0C8
:107BE0008091E20080FD61C08091E10084FF27C0A8
:107BF0008091E20084FF23C084E089BD86E089BDD6
:107C000009B400FEFDCF8091D8008F7D8093D8000D
:107C10008091E1008F7E8093E1008091E2008F7E71
:107C20008093E2008091E20081608093E200809185
:107C30008701882309F44CC084E08EBB11D1809168
:107C4000E10083FF21C08091E20083FF1DC080918D
:107C5000E100877F8093E10082E08EBB1092870174
:107C60008091E1008E7F8093E1008091E2008E7F21
:107C70008093E2008091E20080618093E20042E222
:107C800060E080E010DFECD0FF91EF91BF91AF9109
:107C90009F918F917F916F915F914F913F912F9124
:107CA0000F900FBE0F901F9018958091E2008E7F6D
:107CB0008093E2008091E20080618093E2008091F5
:107CC000D80080628093D80019BC1EBAC9D08CCF6E
:107CD0008091E30087FD03C081E08EBBAFCF83E0DE
:107CE0008EBBACCF1F93CF93DF9300D0CDB7DEB761
:107CF000E9E8F1E08091F100819381E0E139F80752
:107D0000C9F7BFDB8091E80083FF0FC09091890124
:107D100080918A01863009F44EC0D8F48823C1F1DD
:107D2000853019F4992309F479C08091E80083FF24
:107D30000AC08091E800877F8093E8008091EB0083
:107D400080628093EB000F900F90DF91CF911F9195
:107D50000895883009F44FC0893039F79111E5CF83
:107D600080918B01823008F79091E800977F909383
:107D7000E80080938701A8DE8091870181116EC0A1
:107D80008091E30087FD6AC081E08EBB69D0CDCFD2
:107D90009D7F903851F68091E800877F8093E800BE
:107DA0001092F1001092F1008091E8008E7F809394
:107DB000E8008ADEBACF9058923008F0B6CFAE0114
:107DC0004F5F5F4F60918D0180918B0190918C018D
:107DD0007CDDBC01892B09F4A8CF9091E800977F46
:107DE0009093E80089819A81FDDD8091E8008B7F86
:107DF0008093E8009ACF903809F097CF8091E800FF
:107E0000877F8093E800809187018093F1008091C3
:107E1000E8008E7F8093E80057DE87CF10918B01BA
:107E20001F778091E3008078812B8093E30080911D
:107E3000E800877F8093E80047DE8091E80080FFBC
:107E4000FCCF8091E30080688093E300111103C0B0
:107E500082E08EBB6ACF83E08EBB67CF84E095CF94
:107E600008958EB3882319F08091E80083FF089568
:107E700039CFF999FECF92BD81BDF89A992780B587
:107E80000895262FF999FECF1FBA92BD81BD20BD5E
:107E90000FB6F894FA9AF99A0FBE01960895F894DD
:027EA000FFCF12
:107EA200020112034C00550046004100200044002C
:107EB2004600550000002A034C00550046004100D0
:107EC20020002800410074006D0065006C00200055
:107ED20064006F006E006100740065006400290098
:107EE20000000403090409021B0001010080320999
:107EF20004000000FE0102000921030000000C1032
:107F0200011201100100000020EB03F02F0000011C
:047F12000200010068
:107FA000CFCCE0CCF1CCFDCC02CD07CD0DCD0895EA
:087FB000089508950895089555
:107FE000DFCFDFCFDFCFDFCFDFCFDFCFDFCFDFCF21
:087FF000DFCFDFCFDFCFDFCFD1
:087FF8000070000010DFFBDC4B
:040000030000700089
:00000001FF
